:10000000A6C60000D5C60000D3C60000D1C60000B9
:10001000CFC60000CDC60000CBC60000C9C6000098
:10002000C7C60000C5C60000C3C60000C1C60000A8
:10003000BFC60000BDC60000BBC60000B9C60000B8
:10004000B7C60000B5C60000B3C60000B1C60000C8
:10005000AFC60000ADC60000ABC600000C94E419AA
:10006000A7C600000C947F160C945616A1C600007B
:100070009FC600009DC600009BC6000099C60000F8
:1000800097C6000095C6000093C6000091C6000008
:100090008FC600008DC600008BC6000089C6000018
:1000A00087C6000085C6000083C6000081C6000028
:1000B0007FC600007DC600007BC6000079C6000038
:1000C00077C6000075C6000073C6000071C6000048
:1000D0006FC600006DC600006BC6000069C6000058
:1000E00067C6000011007F96290001007F96280056
:1000F0003A0155C0021010C10141C50400228040E0
:10010000360168B00100B102B011B40102B60302B9
:10011000023BB701C63A0155F704A9512C82C0022F
:100120000D0DC1024300C20100C50400480048B4DF
:100130000100B60302023BE00F0F211C0B0E084921
:100140009838091103141000E10F0F2F2B0C0E0625
:10015000477637071104231E00B00100B3040200E4
:100160000000B40100D003074218D103000710D2E9
:10017000020102D3020102D4020102C005123B00B7
:100180000211C103101088C50103C60102C80C008A
:100190003236450616377577540C00CC0100F6034D
:1001A000010100CF03008130ED0464031281E803F4
:1001B000851078CB05392C003402F70120EA0200C3
:1001C00000B00100B102001BB40100C00121C10157
:1001D00011C5023F3CC701B5360148F201002601B6
:1001E00001E00F0F26240B0E0954A8460C17090F27
:1001F0000700E10F00191B0410072A473903060600
:1002000030380F360100B00100C10410100202C0E6
:1002100006003500000102C50104D2020104CA0132
:1002200000EA0180B903FF83577F967F96B60125C8
:10023000C0065050013C1E08B4070240002A2A0D97
:10024000787F01F20B16160308080808100416162A
:10025000FD03110235B2050C0C003333B70135BB79
:10026000012BC00104C20201FFC30111C40120C659
:10027000010FD002A4A1E00ED000050E150D3743EA
:10028000470915121619E10ED000050D0C062D4474
:10029000400E1C1816193A01557F0AB00103E201FD
:1002A0003FC00122E20100B00100C0010AB001001C
:1002B000000000000000000000000000000000003E
:1002C000FFFF0F0000040062080008080003000C94
:1002D00001030B5A0203060903031710040300234A
:1002E00005030017060309630703090C08030C1034
:1002F0000903322210001600110001011200000053
:100300001300010000013003010137020301000D59
:10031000800200610201B0C1FFFF32000100000154
:100320000200000103003010090001000C00000071
:10033000900000800F000000100200001102EF008A
:100340001202000013028F010005000001050000E9
:1003500002055F000104010004040000FFFF3200F9
:1003600007000001FFFF3200000200000102000050
:10037000000000000000000000000000000001007C
:10038000A4000100FFFF0A00600000270800080821
:100390003000140231001537320004063300160E07
:1003A0003400112235000015360007853700071488
:1003B00038000314390020009000150010001004CC
:1003C00011003702290046002A00460007000000FD
:1003D0001200890113000011FFFF96001200B901FD
:1003E00001000001020000020300301009000100BA
:1003F0000A0000000D0000000E0030006100010046
:100400006A000000800000008100000082005F00A0
:100410009200000193000107FFFF50000700000158
:10042000E500F07801000001020000020300301036
:100430000400000005000000080007020900000099
:100440000A0000000C0000000D0000000F0000007A
:10045000100000001100070012000000130000004F
:1004600007000100FFFFC8001000901611002702CE
:10047000FFFF320012000D00FFFF320013000012D8
:1004800029000A002B000D00FFFF320020000000B1
:10049000210000003000000031000404320003009D
:1004A0003500050436000808370007043800030348
:1004B000390007073C0004053D00080860000027DC
:1004C000610001006A00000080000000810000005F
:1004D000820000008300000084000000850000000E
:1004E000900010009200000007003301E50000803A
:1004F00000000100010000010200000703003010AD
:100500000400000008000202090000000A000000C8
:100510000C0000000D0000000F00000010000000A3
:10052000110007001200000013000000FFFF32005E
:100530001000B01711000700FFFF0A0012003A0177
:10054000FFFF0A001300001A29000C00FFFF0A0039
:1005500030000000310005053200040035000600BF
:100560003600070737000501380002003900070789
:100570003C0004073D000708600000A7610001007F
:100580006A00000021000000200000008000000040
:100590008100000082000000830000008400000051
:1005A00085000000900010009200000093000300FE
:1005B00095001001970000009800000007007301EB
:1005C000FFFF3200FF000100F300080000000100FF
:1005D00001000001020000070300301008000203C0
:1005E00009000000100000001100070012000000C8
:1005F00013000000FFFF32001000B014FFFF0A00DC
:1006000011000700FFFF0A0012008E001300000C0B
:1006100029001500FFFF0A0030000000310007012B
:1006200032000000350003023600020437000000EB
:1006300038000702390000003C0003023D000304BB
:10064000600000A76100010090002900070033014D
:10065000FFFF3200150030009A001000110020004A
:10066000100028341200020013003810FFFF280089
:1006700012001200FFFF2800100020341300453044
:10068000FFFF460030000000310002043200070383
:10069000330004033400040035000104360007076A
:1006A000370005033800100639001006010000016C
:1006B0000200000303003010080008080A000800C8
:1006C000600000276100010090003E0192000001DF
:1006D00093000001A0000030A300100007000100FB
:1006E0000700210007002300070033000700330143
:1006F00011001A001200213113006C00140049424D
:1007000010000008FFFF0A0011001A01FFFF0A0095
:1007100011001A03FFFF0A0011001A07FFFF0A0069
:1007200011001A0FFFFF0A0011003A0FFFFF1E0011
:100730000100280102000001030030100700121020
:10074000080003030B0000110C0000000F0001184B
:10075000150020005000010151000306520008045A
:10076000530000005400050655000604560003031C
:100770005700030358001000590000100700120032
:10078000FFFF28000700130007001700000000000B
:10079000003E5B4F5B3E3E6B4F6B3E1C3E7C3E1C07
:1007A000183C7E3C181C577D571C1C5E7F5E1C004D
:1007B000183C1800FFE7C3E7FF0018241800FFE704
:1007C000DBE7FF30483A060E2629792926407F05C7
:1007D0000507407F05253F5A3CE73C5A7F3E1C1CDD
:1007E00008081C1C3E7F14227F22145F5F005F5F9D
:1007F00006097F017F006689956A60606060609489
:10080000A2FFA29408047E040810207E201008088D
:100810002A1C08081C2A08081E101010100C1E0C98
:100820001E0C30383E3830060E3E0E06000000002A
:100830000000005F00000007000700147F147F1411
:10084000242A7F2A12231308646236495620500056
:1008500008070300001C2241000041221C002A1C42
:100860007F1C2A08083E080800807030000808082D
:100870000808000060600020100804023E5149454D
:100880003E00427F400072494949462141494D336B
:100890001814127F1027454545393C4A49493141D2
:1008A000211109073649494936464949291E0000A0
:1008B00014000000403400000008142241141414F5
:1008C0001414004122140802015909063E415D59E1
:1008D0004E7C1211127C7F494949363E41414122EA
:1008E0007F4141413E7F494949417F090909013E14
:1008F000414151737F0808087F00417F410020403B
:10090000413F017F081422417F404040407F021C4C
:10091000027F7F0408107F3E4141413E7F09090963
:10092000063E4151215E7F0919294626494949322F
:1009300003017F01033F4040403F1F2040201F3FF5
:100940004038403F6314081463030478040361597A
:10095000494D43007F4141410204081020004141BC
:10096000417F040201020440404040400003070868
:100970000020545478407F28444438384444442864
:10098000384444287F385454541800087E0902180B
:10099000A4A49C787F0804047800447D4000204093
:1009A000403D007F1028440000417F40007C0478D7
:1009B00004787C080404783844444438FC1824241F
:1009C0001818242418FC7C0804040848545454249F
:1009D00004043F44243C4040207C1C2040201C3C1C
:1009E0004030403C44281028444C9090907C446413
:1009F000544C4400083641000000770000004136A6
:100A0000080002010204023C2623263C1EA1A1612B
:100A1000123A4040207A385454555921555579415D
:100A20002254547842215554784020545579400C32
:100A30001E52721239555555593954545459395515
:100A40005454580000457C410002457D4200014558
:100A50007C407D1211127DF0282528F07C545545EC
:100A6000002054547C547C0A097F49324949493258
:100A70003A4444443A324A4848303A4141217A3A69
:100A800042402078009DA0A07D3D4242423D3D4035
:100A900040403D3C24FF2424487E4943662B2FFCE4
:100AA0002F2BFF0929F620C0887E09032054547992
:100AB000410000447D413048484A32384040227A63
:100AC000007A0A0A727D0D19317D2629292F2826E0
:100AD0002929292630484D402038080808080808E8
:100AE0000808382F10C8ACBA2F102834FA00007B41
:100AF000000008142A142222142A14085500550054
:100B000055AA55AA55AAFF55FF55FF000000FF0042
:100B1000101010FF00141414FF001010FF00FF103D
:100B200010F010F0141414FC001414F700FF00006F
:100B3000FF00FF1414F404FC141417101F10101FEE
:100B4000101F1414141F00101010F0000000001FDC
:100B5000101010101F10101010F010000000FF10E7
:100B60001010101010101010FF10000000FF1400E3
:100B700000FF00FF00001F10170000FC04F4141415
:100B80001710171414F404F40000FF00F7141414E1
:100B900014141414F700F7141414171410101F1061
:100BA0001F141414F4141010F010F000001F101F84
:100BB0000000001F14000000FC140000F010F010F2
:100BC00010FF10FF141414FF141010101F00000069
:100BD00000F010FFFFFFFFFFF0F0F0F0F0FFFFFF6D
:100BE0000000000000FFFF0F0F0F0F0F38444438C4
:100BF00044FC4A4A4A347E02020606027E027E0213
:100C000063554941633844443C04407E201E20061D
:100C1000027E020299A5E7A5991C2A492A1C4C725A
:100C200001724C304A4D4D303048784830BC625AE1
:100C3000463D3E494949007E0101017E2A2A2A2A71
:100C40002A44445F444440514A444040444A51404D
:100C50000000FF0103E080FF000008086B6B08360E
:100C600012362436060F090F06000018180000007F
:100C70001010003040FF0101001F01011E00191D6E
:100C80001712003C3C3C3C0000000000000021002A
:100C9000240027002A002D0030003300010100004D
:100CA000040107010A010102102020080810204059
:100CB0001020408002010201080402010102040820
:100CC00010204080804020100804020180040201AE
:100CD00080402010080402010804020101020408F7
:100CE00010204080010204081020408000002200F3
:100CF000250028002B002E003100340002010000E6
:100D0000050108010B010505050507050808080888
:100D1000020202020A0A0808040404040101010193
:100D2000010101010303030303030303040707078E
:100D30000C0C0C0C0C0C0C0C020202020606060633
:100D4000060606060B0B0B0B0B0B0B0B32221124AA
:100D50001FBECFEFD1E2DEBFCDBF00E00CBF12E07F
:100D6000A0E0B2E0EEE1FAE400E00BBF02C00790C1
:100D70000D92AA35B107D9F723E0AAE5B2E001C088
:100D80001D92AD34B207E1F716E0C7EAD6E000E005
:100D900006C021970109802FFE010E940125C63A55
:100DA000D10780E00807A9F70E942E1A0C940D25A0
:100DB00027C9EF92FF920F931F93DC01ED91FC91F5
:100DC00000A0F1A1E02D780101E010E019951F913C
:100DD0000F91FF90EF900895EF92FF920F931F9362
:100DE000DC01ED91FC9100A0F1A1E02D78018901D9
:100DF00021E030E019951F910F91FF90EF90089539
:100E0000089580E090E00895EF92FF920F931F9372
:100E1000DC01ED91FC9111971A960D911C911B9795
:100E200018962D913C91199700A0F1A1E02D7B011E
:100E300040E050E060E070E019951F910F91FF9045
:100E4000EF9008958B988A9820910201277820933B
:100E50000201A5982EB1277C2EB970910201292F8D
:100E60003327F901E370FF27A5E0EE0FFF1FAA95D6
:100E7000E1F7E72BE09302017EB1F901EC70FF2767
:100E8000EE0FFF1FEE0FFF1FE72BEEB974B3F90152
:100E9000E071FF27EE0FFF1FE72BE4BB7EB1F901E6
:100EA000E072FF27F595E795F595E795E72BEEB905
:100EB00070910201207C3327E3E035952795EA9570
:100EC000E1F7272B209302018998899A209102014A
:100ED000277820930201A5982EB1277C2EB9709116
:100EE00002019C0123703327F5E0220F331FFA958E
:100EF000E1F7272B209302017EB19C012C70332750
:100F0000220F331F220F331F272B2EB974B39C01DE
:100F100020713327220F331F272B24BB7EB19C0166
:100F2000207233273595279535952795272B2EB990
:100F3000709102019C01207C3327F3E035952795C1
:100F4000FA95E1F7272B209302018998899A8A9ACA
:100F5000FA01A0915A027FEF760F16160CF0C8C066
:100F6000219130910201377830930201A5983EB16A
:100F7000377C3EB960910201322F3370B0E23B9F63
:100F8000A0011124462B409302016EB1322F3C7018
:100F9000B4E03B9FA0011124462B4EB944B3322F3D
:100FA0003071330F342B34BB6EB1322F3072432F7C
:100FB00050E05595479555954795462B4EB930913C
:100FC0000201207C269526952695232B209302014D
:100FD0008998899A772309F489C0AA2309F486C0DD
:100FE00001968A9820910201277820930201A59802
:100FF0002EB1277C2EB960910201292F3327A90138
:1010000043705527B5E0440F551FBA95E1F7462BBD
:10101000409302016EB1A9014C705527440F551F32
:10102000440F551F462B4EB964B3A9014071552793
:10103000440F551F462B44BB6EB1A9014072552782
:101040005595479555954795462B4EB940910201C8
:10105000207C332753E0359527955A95E1F7242BCB
:10106000209302018998899A209102012778209380
:101070000201A5982EB1277C2EB9409102019C0156
:101080002370332765E0220F331F6A95E1F7242B85
:10109000209302014EB19C012C703327220F331F85
:1010A000220F331F242B2EB944B39C012071332708
:1010B000220F331F242B24BB4EB19C0120723327F7
:1010C0003595279535952795242B2EB9409102010A
:1010D0009C01207C3327B3E035952795BA95E1F73D
:1010E000242B209302018998899A8A9A672F33CFFB
:1010F0008B9A08958B988A98E2E0F1E02081277816
:101100002083A5982EB1277C2EB9A081292F3327C3
:10111000A90143705527B5E0440F551FBA95E1F773
:101120004A2B4083AEB1A9014C705527440F551F7F
:10113000440F551F4A2B4EB9A4B3A901407155273E
:10114000440F551F4A2B44BBAEB1A901407255272D
:1011500055954795559547954A2B4EB94081207C2A
:10116000332753E0359527955A95E1F7242B2083B3
:101170008998899A208127782083A5982EB1277C89
:101180002EB940819C0123703327A5E0220F331F25
:10119000AA95E1F7242B20834EB19C012C703327B4
:1011A000220F331F220F331F242B2EB944B39C016F
:1011B00020713327220F331F242B24BB4EB19C01F7
:1011C000207233273595279535952795242B2EB9F1
:1011D0002081807C9927B3E095958795BA95E1F7B2
:1011E000822B80838998899A8A9A808187788083E4
:1011F000A5988EB1877C8EB94081872F99279C0155
:101200002370332755E0220F331F5A95E1F7242B23
:1012100020834EB19C012C703327220F331F220FE5
:10122000331F242B2EB944B39C0120713327220F86
:10123000331F242B24BB4EB19C01207233273595DC
:10124000279535952795242B2EB92081807C9927C9
:10125000A3E095958795AA95E1F7822B80838998DD
:10126000899A808187788083A5988EB1877C8EB992
:101270002081CB0183709927B5E0880F991FBA951B
:10128000E1F7822B80832EB1CB018C709927880FD8
:10129000991F880F991F822B8EB924B3CB018071BF
:1012A0009927880F991F822B84BB2EB1CB018072A6
:1012B00099279595879595958795822B8EB98081ED
:1012C000607C7727A3E075956795AA95E1F7682B71
:1012D00060838998899A8B9A08958F929F92AF9292
:1012E000BF92CF92DF92EF92FF920F931F93CF9313
:1012F000DF9300D01F92CDB7DEB77C014B016A01AE
:101300005901FC01868D978D8732F3E99F0799F487
:10131000F7018589823031F4F0E2CF0ED11C005EF6
:101320001F4F1DC08330D9F420E2820E911C80E251
:10133000A80EB11C14C08632954189F4F701858945
:1013400080FF0DC0C801841B950B19F40F5F1F4F60
:1013500006C02617370719F4A80EB91E8A01F7012F
:10136000848D80FF37C084A599828A82BB82AC823B
:10137000AE014F5F5F4F64E090E064DDF70180A94C
:10138000D982CA821B830C83AE014F5F5F4F64E03A
:1013900090E058DD80915A02882309F451C0F7018A
:1013A000868D978D8536910509F04AC099828A828B
:1013B000AE014F5F5F4F62E086A197A143DDD98206
:1013C000CA82AE014F5F5F4F62E0F70180A591A531
:1013D00039DD36C0B401F70186A197A18BDEB601D5
:1013E000F70180A591A586DE8A149B0419F4C01626
:1013F000D10631F1F701848D85FF0EC0858980FF0C
:1014000006C0102F0027C02AD12A860105C0BA2C99
:10141000AA248A289B285401B401F70184A595A524
:1014200069DEB601F70180A991A964DEB501F70173
:1014300086A597A55FDEB801F70182A993A95ADEB8
:101440000F900F900F900F90DF91CF911F910F9100
:10145000FF90EF90DF90CF90BF90AF909F908F90D4
:101460000895AF92BF92CF92DF92EF92FF920F93C7
:101470001F93CF93DF93EC0180915B02882349F0A7
:10148000C7018F719927880F991FE1ECEE22E82A96
:10149000F92A37FF05C0620F731F31952195310975
:1014A000260F371F77FF02C060E070E088859985BE
:1014B000821793070CF49C016901C61AD70A17FF1B
:1014C00005C0400F511F119501951109040F151FFB
:1014D00057FF02C040E050E08A859B858017910746
:1014E0000CF48C015801A41AB50A015011092150BD
:1014F0003109CE01F2DE8B988A988AA59BA52091AE
:101500000201277820930201A5982EB1277C2EB9DD
:1015100060910201292F3327A9014370552705E067
:10152000440F551F0A95E1F7462B409302016EB117
:10153000A9014C705527440F551F440F551F462BCA
:101540004EB964B3A90140715527440F551F462B6E
:1015500044BB6EB1A90140725527559547955595E5
:101560004795462B4EB940910201207C3327A3E0DA
:1015700035952795AA95E1F7242B209302018998A8
:10158000899A20910201277820930201A5982EB113
:10159000277C2EB9409102019C0123703327B5E0CE
:1015A000220F331FBA95E1F7242B209302014EB18D
:1015B0009C012C703327220F331F220F331F242B43
:1015C0002EB944B39C0120713327220F331F242BE3
:1015D00024BB4EB19C012072332735952795359554
:1015E0002795242B2EB920910201807C992763E056
:1015F000959587956A95E1F7822B809302018998EA
:10160000899A8A9ACA14DB042CF49C2D8D2D6501CD
:10161000A92EB82E8F2D99279C0123703327229550
:10162000220F207EAC014C705527342F330F330F1F
:10163000AC0140715527440FBC01769567957695AE
:101640006795562F587063E0969587956A95E1F7F0
:101650008871B70163707727962F9295990F907EC6
:10166000B7016C707727660F660FF701E071FF27EF
:101670007E2F770FD701B695A795B695A795A87039
:10168000F701B3E0F695E795BA95E1F71E2F1871CB
:101690001A141B040CF043C0F601B0910201B77894
:1016A000B0930201A598BEB1B77CBEB9B09102015A
:1016B000B22BB0930201BEB1B32BBEB9B4B3B42BFD
:1016C000B4BBBEB1B52BBEB9B0910201B82BB0937B
:1016D00002018998899AB0910201B778B09302010A
:1016E000A598BEB1B77CBEB9B0910201B92BB09339
:1016F0000201BEB1B62BBEB9B4B3B72BB4BBBEB1F9
:10170000BA2BBEB9B0910201B12BB09302018998F6
:10171000899A319711F6E1E0AE1AB108B9CF8B9AE8
:101720008C8D80FF08C08E8D9F8D8632954189F407
:101730008D8980FF0EC00A851B85015011092885FF
:1017400039852150310940E050E060E070E0CE0181
:10175000C4DDDF91CF911F910F91FF90EF90DF904B
:10176000CF90BF90AF900895EF92FF920F931F9389
:10177000CF93DF937C01E90177FD28C057FD26C098
:10178000FC01808591856817790704F5828593852A
:1017900048175907DCF480915B02882341F0CE01A1
:1017A0008F719927880F991FC17CC82BD92B8A016B
:1017B0009B01C70192DDBE01F70182A593A5DF91D0
:1017C000CF911F910F91FF90EF9094CCDF91CF912B
:1017D0001F910F91FF90EF900895DF92EF92FF928B
:1017E0000F931F93CF93DF93CDB7DEB72A970FB632
:1017F000F894DEBF0FBECDBF7C01862F8370D7016A
:1018000055968C935597462F417060FF05C01696EC
:101810002D913C91179703C0F70124813581D701A1
:1018200019963C932E931897442329F014962D91E2
:101830003C91159703C0F70126813781D7011B968C
:101840003C932E931A97823041F0833041F08130DF
:1018500011F088E405C088E203C088E901C088EF80
:101860008A87F701248D358D30FF03C08A85805823
:101870008A8731FF04C09A8580E489278A8733FFED
:1018800004C09A8588E089278A87D7015E968D9162
:101890009C915F9720FFCFC010915A028431B8E627
:1018A0009B07F1F49A85892F881F8827881F8295C6
:1018B000880F880F807C96FD02C020E001C020E2E6
:1018C00098729A871F828260822B88878BE3898730
:1018D000AE01495F5F4F63E086EB90E0B3DA82C010
:1018E0008336E9E19E0741F08138F4E99F0721F052
:1018F000813125E1920709F52A8527FF02C0216081
:101900002A872A8526FF02C022602A87833639E18A
:10191000930719F48A858F730EC0813844E99407C0
:1019200019F48A858F7207C08131954109F05AC038
:101930008A858F7E806C8A8755C0112309F452C036
:1019400062E070E0F70177A366A326E030E031A7FC
:1019500020A7E2E2F0E0D7019B96FC93EE939A97E2
:101960009D967C936E939C9764E070E09F967C9329
:101970006E939E97D1963C932E93D09728E030E0BB
:10198000D3963C932E93D2978536910501F59A858F
:1019900094FD03C081E889278A87442351F082E8B7
:1019A00090E0F70197A386A380E890E091A780A735
:1019B0002EC080E890E0D70197969C938E939697DF
:1019C00082E890E099969C938E93989720C08235F8
:1019D0009245E9F48A8584FD02C0826001C0866078
:1019E0008A8715C02AE230E0F70137A326A38BE2ED
:1019F00090E091A780A74CE250E053A742A735A7FB
:101A000024A737A726A791AB80AB93AB82AB11116C
:101A100003C086E390E002C086E190E0AE01465F3D
:101A20005F4F61E00FDA8A8590E0D70193969C932F
:101A30008E939297E3C02A858339B7E79B0709F411
:101A400048C050F48435F1E09F0781F0803234E5DE
:101A5000930709F081C03DC0863243E99407C9F17C
:101A60008930A5EB9A0709F077C033C087E390E08F
:101A7000F70195A784A786E390E097A786A789E357
:101A800090E091AB80AB88E390E093AB82AB80E2D7
:101A900090E097A386A381E290E091A780A782E2DD
:101AA00090E093A782A7822F022E000C990B882723
:101AB000990F881F9927982F8827990F26FD03C013
:101AC00060E070E002C060E071E08862682B792B12
:101AD00081C040E052E0D70197965C934E93969771
:101AE00041E052E099965C934E93989742E052E021
:101AF0009B965C934E939A9740E152E09D965C933F
:101B00004E939C9741E152E09F965C934E939E9733
:101B100042E152E0D1965C934E93D09743E152E07C
:101B2000D3965C934E93D29727FD03C020E030E01C
:101B300002C020E030E88632B3E99B0731F0803202
:101B4000944519F060E07AE602C060E075E3622B2C
:101B5000732B80E094E035C080E290E0D701979647
:101B60009C938E93969781E290E099969C938E93A6
:101B7000989782E290E09B969C938E939A9780E54B
:101B800090E09D969C938E939C9781E590E09F9624
:101B90009C938E939E9782E590E0D1969C938E9332
:101BA000D09783E590E0D3969C938E93D29727FDB0
:101BB00003C060E070E002C060E070E8776280E639
:101BC00090E098DA8A8586FD03C060E070E002C08C
:101BD00060E071E081E090E08DDA8A8585FD03C0E8
:101BE00060E070E002C068E070E083FD70616063F7
:101BF000F70173A362A383E090E07CDAD7015596E6
:101C00008C91559780FF36C05C968D919C915D9725
:101C100092FD30C096968D919C91979798962D91B4
:101C20003C91999797963C932E93969799969C936F
:101C30008E9398979C968D919C919D97D0962D917F
:101C40003C91D1979D963C932E939C97D1969C93D3
:101C50008E93D0979E968D919C919F97D2962D9121
:101C60003C91D3979F963C932E939E97D3969C93AB
:101C70008E93D297F70102851385015011092085B3
:101C800031852150310940E050E060E070E0C7014B
:101C900024DBD70116966D917C9117975E968D91F6
:101CA0009C915F978732B3E99B0749F4F701258937
:101CB0002250223008F49AC000E010E099C000E001
:101CC00010E020E030E0D7015C964C9140FF42C02C
:101CD0001982D02E0A837B836C831D822E83109100
:101CE0005A02111103C083E390E002C08EE090E03D
:101CF000AE014F5F5F4F66E0A5D81982DA821111FD
:101D000003C087E390E002C084E190E0AE014F5F42
:101D10005F4F62E097D8112389F01982F701868D11
:101D2000978D8734934819F081E090E002C088E1F4
:101D300090E0AE014F5F5F4F61E00AC0D7015C9653
:101D40008C9180FF5AC040E050E060E083E190E079
:101D500079D853C08339B7E79B0779F160F48032B3
:101D6000F4E59F0751F1833827E7920791F0843516
:101D7000914081F512C0863243E99407F1F028F4CE
:101D800085529249029748F025C08930954BA9F0B9
:101D900021C0F70160A171A121C0600F711F6150C6
:101DA000710981E390E0A6D9B80182E390E0A2D95D
:101DB00060E070E083E390E017C0D70190966D91EA
:101DC0007C919197626081E094E094D9B80184E0BD
:101DD00094E00AC0F70160A171A1626081E690E021
:101DE00089D9B8018AE690E085D907C000E210E001
:101DF00020E230E0201B310B66CF2A960FB6F89414
:101E0000DEBF0FBECDBFDF91CF911F910F91FF902D
:101E1000EF90DF900895CF92DF92EF92FF920F93B1
:101E20001F93CF93DF936C017A018B01C0E0D0E068
:101E3000CE15DF0589F0D8016D918D01D601ED91A8
:101E4000FC910190F081E02DC6011995892B11F4C8
:101E50007E0102C02196ECCFC701DF91CF911F9187
:101E60000F91FF90EF90DF90CF900895FC01538D7C
:101E7000448D252F30E0842F90E0821B930B541764
:101E800010F0CF96089501970895FC01918D828DF1
:101E9000981761F0828DDF01A80FB11D5D968C91BE
:101EA000928D9F5F9F73928F90E008958FEF9FEFC9
:101EB0000895FC01918D828D981731F0828DE80F85
:101EC000F11D858D90E008958FEF9FEF0895FC013F
:101ED000918D228D892F90E0805C9F4F821B91090C
:101EE0008F73992708958EE592E0F1DF21E0892B29
:101EF00009F420E0822F0895FC01848DDF01A80FF2
:101F0000B11DA35ABF4F2C91848D90E001968F7321
:101F10009927848FA689B7892C93A089B1898C9140
:101F200080648C93938D848D981306C00288F38906
:101F3000E02D80818F7D80830895EF92FF920F9333
:101F40001F93CF93DF93EC0181E0888F9B8D8C8D65
:101F5000981305C0E889F989808185FD23C0F62E94
:101F60000B8D10E00F5F1F4F0F731127E02E8C8D2C
:101F7000E8120BC00FB607FCFACFE889F989808117
:101F800085FFF5CFCE01B8DFF2CF8B8DFE01E80FD4
:101F9000F11DE35AFF4FF0820B8FEA89FB898081A4
:101FA000806207C0EE89FF896083E889F9898081B2
:101FB0008064808381E090E0DF91CF911F910F9149
:101FC000FF90EF900895CF93DF93EC01888D8823E5
:101FD000C1F0EA89FB89808185FD05C0A889B9899E
:101FE0008C9186FD0EC00FB607FCF5CF808185FF72
:101FF000F2CFA889B9898C9185FFEDCFCE017CDF26
:10200000E8CFDF91CF91089580E090E0892B19F01F
:102010006ADF811125C080E090E0892B41F080E0EB
:1020200090E0892B21F00E94000081111CC080E00B
:1020300090E0892B41F080E090E0892B21F00E9414
:102040000000811113C080E090E0892BA1F080E0B6
:1020500090E0892B81F00E94000081110AC0089550
:102060000E940000D8CF0E940000E1CF0E94000033
:10207000EACF0C94000008950895FC016370658B0D
:102080008481958126813781613039F0633029F070
:1020900091878087338722870895318720879387A8
:1020A000828708952F923F924F925F926F927F9214
:1020B0008F929F92AF92BF92CF92DF92EF92FF9258
:1020C0000F931F93CF93DF93CDB7DEB76C970FB607
:1020D000F894DEBF0FBECDBF9C8F8B8F5B011A01C2
:1020E0001F830E833701C982DC0158964D915C91A4
:1020F00059974115510509F0E5C018968D919C91AD
:102100001997681779070CF0CAC11A968D919C919E
:102110001B97281639060CF0C2C18C2C912CFB01A0
:1021200036E0C39EE00DF11D1124FB87EA871E16E1
:102130001F060CF0B4C1C40133E0880F991F3A9513
:10214000E1F79D878C87820D931D181619060CF0F8
:10215000A6C157968C91811103C0203B08F02F5FD8
:10216000AB8DBC8DED91FC9111970284F385E02D30
:10217000CD012A8F19952A8DB5E02B9F900111244E
:10218000F5013596FF87EE87BB82AA822501A9015A
:102190004A195B09598B488BC10108969B8B8A8B26
:1021A000E889F989E40DF51DE457F84F9491988773
:1021B00061013D822C82A885A0FF13C0AB8DBC8D30
:1021C000ED91FC91B981B13031F40484F585E02DB5
:1021D0002E813F8116C00684F785E02DEE80FF80BA
:1021E0001AC0EE81FF816E167F06F1F0AB8DBC8DBB
:1021F000ED91FC91B981B13051F40484F585E02D65
:102200009301A601B2018B8D9C8D19950DC006849A
:10221000F785E02D7301840194014C815D816A8111
:102220007B818B8D9C8D1995E885E695E887FFEF7E
:10223000CF1ADF0A2C813D81280D391D3D832C8367
:102240004A895B89C416D50609F0B5CF5FEF451AF8
:10225000550A8A819B81880D991D9B838A83AE854F
:10226000BF854A165B0609F09BCFEE81FF816E1693
:102270007F0609F4F2C0EB8DFC8DA081B181F9815C
:10228000F13079F4B5016B5F7F4F5096ED91FC9181
:102290005197830128E030E0A1018B8D9C8D199529
:1022A000DCC06A857B85681979091E96ED91FC91E1
:1022B0001F9773010C851D859401A1018B8D9C8D49
:1022C0001995CBC0FA013496949132976591749127
:1022D000291BCB01B7E02B9F800D911D1124FA0122
:1022E000259134913B8B2A8BFC01459154915B8362
:1022F0004A83FC013296C490319654915E8732969F
:1023000014913196D4908981823058F0612E012E3B
:10231000000C7708AD2D0D2C000CBB0BB987A887DE
:1023200004C019861886612C712CAB8DBC8DED9183
:10233000FC9111970284F385E02DCD011995B981A7
:102340008B2E912C689CC001699C900D789C900DFF
:102350001124FC01EA0DFB1DFD87EC871C82712C0A
:10236000612CE12F110FFF0B95012E0F3F1F3B87B3
:102370002A87AC0CB11CA5014E0F5F1F5F8B4E8BE3
:10238000C1018D0D911DD7FC9A95998F888F4E852F
:10239000641608F062C0862D90E048855985480F84
:1023A000591F489D9001499D300D589D300D1124B5
:1023B000D901A20DB31DB98BA88BAA84BB844C8410
:1023C0005D84DC80BA85DB1AE88DF98DE80FF91F92
:1023D000FD8BEC8B8D2D8A0D2E893F89A216B306BD
:1023E000B9F1877061F48A819B810196EA89FB8942
:1023F000AA81BB81EA0FFB1F74909B838A8377FEBF
:1024000020C0AB8DBC8DED91FC91B981B13061F4F0
:102410000484F585E02D2E813F814C895D89B501CD
:102420008B8D9C8D19950DC00684F785E02DEE806F
:10243000FF808401940148895989B2018B8D9C8D5C
:102440001995770CEFEFAE1ABE0A480C591CC2CF93
:102450003C813C0D3C8363949ACFAB8DBC8DED9158
:10246000FC9111970688F789E02DCD016C960FB687
:10247000F894DEBF0FBECDBFDF91CF911F910F91BA
:10248000FF90EF90DF90CF90BF90AF909F908F9094
:102490007F906F905F904F903F902F9019946C9623
:1024A0000FB6F894DEBF0FBECDBFDF91CF911F9165
:1024B0000F91FF90EF90DF90CF90BF90AF909F90E3
:1024C0008F907F906F905F904F903F902F900895E6
:1024D000AF92BF92CF92EF92FF920F931F93CF9341
:1024E000DF93EC01262F888D998D009709F03FC06E
:1024F0006A3059F41D861C862C898E859F8538E0AC
:10250000239F800D911D112440C06D3009F4A8C097
:102510008E898823C1F03C898C859D8546E0349F57
:10252000800D911D112448855985481759075CF481
:102530001D861C868E859F8548E0349F800D911DE9
:1025400011249F878E87EA88FB88088919894E8520
:102550005F856C857D85CC88CE01A4DD2C898C853A
:102560009D8536E0239F800D911D112442C06A3065
:1025700079F41D861C862C89FC013696E4918E85A3
:102580009F852E9F800D911D11249F878E8768C087
:102590006D3009F465C0FC0134963491631708F47A
:1025A0005FC03196E491E61708F45AC0FC013296F8
:1025B000A590B490462F50E0431B510937E0349F5B
:1025C000B001359F700D1124A60EB71EF50132968D
:1025D00034913196E491332311F0E1110DC0F501EE
:1025E0003496E4912C898C859D85E29F800D911D08
:1025F00011249D878C8734C0F501359644915E89FE
:10260000552311F16C89E32FF0E0E40FF11D47FD34
:10261000FA956E9FD0016F9FB00D11244C855D859A
:102620004A0F5B1FE885F985E417F5076CF41D86F2
:102630001C86FC013696E4918E859F856E9F800DE9
:10264000911D11249F878E87EA88FB880889198944
:102650004E855F856C857D85CC88CE0123DDBFCF1F
:1026600081E090E0DF91CF911F910F91FF90EF906B
:10267000CF90BF90AF9008956F927F928F929F926C
:10268000AF92BF92CF92DF92EF92FF920F931F9380
:10269000CF93DF93EC014B015A0169013801E881C6
:1026A000F9810284F385E02D1995E881F98102888A
:1026B000F389E02D87019601A501B401CE0119959A
:1026C000E881F981A501460D571D41505109028845
:1026D000F389E02D9601B401CE011995E881F981C5
:1026E0000088F189E02D9301A501B401CE0119956F
:1026F000E881F981C80CD91CB601615071090088C4
:10270000F189E02D9301A501CE011995E881F981A8
:102710000688F789E02DCE01DF91CF911F910F91AF
:10272000FF90EF90DF90CF90BF90AF909F908F90F1
:102730007F906F901994CF92DF92EF92FF920F9358
:102740001F93CF93DF9300D000D0CDB7DEB76C01DD
:10275000DC01ED91FC916217730789F404171507EA
:102760002CF4942F852FA801092F182F041B150B6B
:1027700098012F5F3F4F048CF58DE02D12C040175C
:10278000510709F5261737072CF4962F872FB90123
:10279000292F382F261B370B2F5F3F4F068CF78DC5
:1027A000E02D8701C601199526960FB6F894DEBF75
:1027B0000FBECDBFDF91CF911F910F91FF90EF9092
:1027C000DF90CF9008950284F385E02D2D833E8322
:1027D0004B835C8369837A831995D601ED91FC91D3
:1027E0000488F589E02D2D813E814B815C816981D2
:1027F0007A81C6011995D601ED91FC910688F78979
:10280000E02DC60126960FB6F894DEBF0FBECDBFF1
:10281000DF91CF911F910F91FF90EF90DF90CF90BC
:102820001994EF92FF920F931F93DC01ED91FC91AD
:1028300011971A960D911C911B9718962D913C910A
:10284000199700A0F1A1E02D7B0140E050E060E08D
:1028500070E019951F910F91FF90EF9008954F929E
:102860005F926F927F928F929F92AF92BF92CF9220
:10287000DF92EF92FF920F931F93CF93DF931F92FC
:102880001F92CDB7DEB76C015A0139014801DC0156
:10289000ED91FC910284F385E02D69837A8319958B
:1028A0006981462E7A81572E640C751CD601ED91F4
:1028B000FC91461457046CF40088F189E02D8701DF
:1028C0009401A501B201C6011995BFEF4B1A5B0A2D
:1028D000EDCF0688F789E02DC6010F900F90DF91AC
:1028E000CF911F910F91FF90EF90DF90CF90BF900D
:1028F000AF909F908F907F906F905F904F901994C2
:10290000AF92BF92CF92DF92EF92FF920F931F93FD
:10291000CF93DF9300D01F92CDB7DEB75C01690182
:10292000DC01ED91FC910284F385E02D4B835C8307
:1029300069837A831995D501ED91FC9169817A813A
:102940009B012C0D3D1D215031090488F589E02D96
:1029500078014B815C818A01C5011995D501ED9102
:10296000FC910688F789E02DC5010F900F900F901C
:102970000F90DF91CF911F910F91FF90EF90DF901B
:10298000CF90BF90AF901994AF92BF92CF92DF9249
:10299000EF92FF920F931F93CF93DF9300D01F927C
:1029A000CDB7DEB75C016901DC01ED91FC910284D9
:1029B000F385E02D4B835C8369837A831995D50178
:1029C000ED91FC914B815C81C40ED51EB1E0CB1A18
:1029D000D1080488F589E02D7801860169817A8122
:1029E0009B01C5011995D501ED91FC910688F789E8
:1029F000E02DC5010F900F900F900F90DF91CF91B8
:102A00001F910F91FF90EF90DF90CF90BF90AF900C
:102A100019940895EF92FF920F931F93DC01ED91AB
:102A2000FC9100A0F1A1E02D19951F910F91FF904D
:102A3000EF9008950F931F93DC01ED91FC91068CAC
:102A4000F78DE02D19951F910F9108950F931F9306
:102A5000DC01ED91FC91048CF58DE02D19951F9111
:102A60000F910895DC01ED91FC910084F185E02D3A
:102A7000199408952F923F924F925F926F927F9296
:102A80008F929F92AF92BF92CF92DF92EF92FF927E
:102A90000F931F93CF93DF9300D0CDB7DEB74C01D8
:102AA0007B836A836A01590117019801241B350B46
:102AB00037FF03C0319521953109C5014A815B81FA
:102AC000841B950B97FF03C091958195910951E067
:102AD00059838217930714F019820BC09A2D8B2DFE
:102AE0005801092F182F9A818B81DB82CA82C92E47
:102AF000D82E8A819B81A816B9065CF49C2D8D2D59
:102B00006801092F182F9A818B81BB82AA82A92E76
:102B1000B82E2501AA81BB814A1A5B0A38016C18BC
:102B20007D0877FE03C0719461947108720157FEAD
:102B300003C0BFEFEB1AFB0AF594E794C016D10669
:102B40001CF00FEF1FEF1FC001E010E01CC0D4010C
:102B5000ED91FC91B9810484F585E02D9101BB23B1
:102B6000C1F04A815B81B601C4011995E618F708E6
:102B7000F7FE04C0C00ED11EE40CF51CEA81FB81F7
:102B80003196FB83EA834A815B81A416B506FCF685
:102B900004C0A6016A817B81E7CF0F900F900F9050
:102BA000DF91CF911F910F91FF90EF90DF90CF9029
:102BB000BF90AF909F908F907F906F905F904F905D
:102BC0003F902F9008950E940925CF93DF931F9285
:102BD000CDB7DEB7FC01848D258D24FB992790F9B4
:102BE0009627692F70E071A360A380FF2DC08091AC
:102BF0005A028823E1F0268D378D273483E8380781
:102C000019F02235324531F4911102C082E007C03B
:102C100086E005C0911102C08AE001C088E0898386
:102C2000AE014F5F5F4F61E081E090E00AC091111B
:102C300003C080E290E002C081E290E040E050E01A
:102C400060E00E9422072EC0868D978D873222E990
:102C5000920780F4853222E99207A0F4803224E5BD
:102C60009207C1F0833927E79207A1F0843591409C
:102C7000A9F408C0863223E9920761F08930954BA8
:102C800069F408C0660F771F660F771F636187E0DE
:102C900090E006C0626081E094E002C081E690E0CE
:102CA0000E947A080F90DF91CF9108951F920F92A2
:102CB0000FB60F9211240BB60F922F933F934F93A1
:102CC0005F936F937F938F939F93AF93BF93EF9394
:102CD000FF938EE592E010D9FF91EF91BF91AF91F4
:102CE0009F918F917F916F915F914F913F912F9124
:102CF0000F900BBE0F900FBE0F901F9018951F9254
:102D00000F920FB60F9211240BB60F922F938F9341
:102D10009F93EF93FF93E0916E02F0916F02808199
:102D2000E0917402F091750282FD12C09081809151
:102D300077028F5F8F7320917802821751F0E091B4
:102D40007702F0E0E25AFD4F958F8093770201C041
:102D50008081FF91EF919F918F912F910F900BBEEA
:102D60000F900FBE0F901F9018950F931F93CF9346
:102D7000DF93EC018B0110161106ACF4FE01859176
:102D800094912496FE013297659174918F3F2FEFB5
:102D9000920721F480E090E058D102C00E947A08A6
:102DA00004501109E8CFDF91CF911F910F91089541
:102DB000BF92CF92DF92EF92FF920F931F93CF9328
:102DC000DF93CDB7DEB768970FB6F894DEBF0FBEBE
:102DD000CDBF8C017B018EEFC82EDD24DA941E144A
:102DE0001F045CF5F80184913196B4900E5F1F4F7B
:102DF0008F3729F0202FDE011196F80107C06B2DC7
:102E000070E080E090E021D1B12C11C09E2F921B88
:102E10009B1520F494919D933196F8CF0B0D111DC5
:102E2000AE014F5F5F4F6B2D90E00E942207C601FD
:102E30008B199109E80EF91ED2CF68960FB6F89457
:102E4000DEBF0FBECDBFDF91CF911F910F91FF90DD
:102E5000EF90DF90CF90BF9008953FB7F8948091A6
:102E6000480390914903A0914A03B0914B0326B5C2
:102E7000A89B05C02F3F19F00196A11DB11D3FBFB2
:102E8000BA2FA92F982F8827820F911DA11DB11D40
:102E9000BC01CD0142E0660F771F881F991F4A953C
:102EA000D1F70895009769F0FC0101900020E9F73F
:102EB0003197AF01481B590BBC018EE592E00C9491
:102EC0000B0F80E090E008958F929F92AF92BF9297
:102ED0000F931F93CF93DF93CDB7DEB7A1970FB6B4
:102EE000F894DEBF0FBECDBF19A2423008F44AE00D
:102EF0008E010F5D1F4F842E912CA12CB12CA501AA
:102F000094010E94DF24E62FB901CA010150110982
:102F1000EA3014F4E05D01C0E95CD801EC93232BA6
:102F2000242B252B61F7C801BDDFA1960FB6F894BD
:102F3000DEBF0FBECDBFDF91CF911F910F91BF902C
:102F4000AF909F908F900895CF92DF92EF92FF9273
:102F5000CF93DF936B017C01E0915E02F0915F0201
:102F60000190F081E02D6DE28EE592E01995EC0183
:102F700066277727CB016C197D098E099F094AE0E6
:102F8000A3DF8C0F9D1FDF91CF91FF90EF90DF901B
:102F9000CF900895CF93DF9390E0FC01EA55F34F73
:102FA0002491FC01EA5FF24F8491882361F190E063
:102FB000880F991FFC01E457F34FC591D491FC0190
:102FC000E451F34FA591B491611109C09FB7F894F2
:102FD0008881209582238883EC912E230BC0623058
:102FE00061F49FB7F8943881822F8095832388837A
:102FF000EC912E2B2C939FBF06C08FB7F894E881DD
:103000002E2B28838FBFDF91CF910895863308F050
:10301000865390917B00282F2870977F922B909356
:103020007B008770806480937C0080917A0080644C
:1030300080937A0080917A0086FDFCCF80917800A1
:103040002091790090E0922B08958F929F92AF92F9
:10305000BF92CF92DF92EF92FF926B017C01FDDE77
:103060004B015C01C114D104E104F104E9F0F5DE87
:10307000DC01CB0188199909AA09BB09883E934054
:10308000A105B10578F321E0C21AD108E108F108E1
:1030900088EE880E83E0981EA11CB11CC114D104D7
:1030A000E104F10421F7DECFFF90EF90DF90CF90A5
:1030B000BF90AF909F908F90089581E080934C03D4
:1030C000E1E0F1E08081886780839D9A8DB188631B
:1030D0008DB9809A819A829A839A849A8B9A889AD7
:1030E000899A8C9A62E370E080E090E0AEDF8C9881
:1030F00064E670E080E090E0A8DF8C9A64E670E01F
:1031000080E090E0A2DF60E070E080EB90E00C9463
:103110007A081F93CF93DF93EC01162F80914C0315
:10312000811101C0CADF8B988A988091020187784B
:1031300080930201A5988EB1877C8EB940910201DF
:103140008D2F99279C012370332755E0220F331FC1
:103150005A95E1F7242B209302014EB19C012C706B
:103160003327220F331F220F331F242B2EB944B3D2
:103170009C0120713327220F331F242B24BB4EB117
:103180009C01207233273595279535952795242B5B
:103190002EB920910201807C9927F3E095958795BF
:1031A000FA95E1F7822B809302018998899A8091A0
:1031B0000201877880930201A5988EB1877C8EB931
:1031C00020910201CE0183709927A5E0880F991FF5
:1031D000AA95E1F7822B809302012EB1CE018C706B
:1031E0009927880F991F880F991F822B8EB924B3B6
:1031F000CE0180719927880F991F822B84BB2EB135
:10320000CE01807299279595879595958795822B04
:103210008EB980910201C07CDD2753E0D595C7951A
:103220005A95E1F7C82BC09302018998899A8A9A26
:10323000809101018778809301019D988DB1877CF1
:103240008DB961E070E080E090E0FFDE889A8898B8
:1032500088988898209100016CB1E2B38CB1A0915C
:103260000001889A889A88988898889870910001B7
:10327000FCB132B34CB150910001889A115017FF44
:10328000E5CF889A8B9A90910101986790930101FC
:103290009D9A9DB198639DB94870440F440F587131
:1032A00098E0599FE00111249C2F942B3072432FFA
:1032B00050E055954795492B9F2F9073969596957D
:1032C000942B472F4076429546954770492B88703E
:1032D00090E0880F991F880F991FA87138E0A39F6D
:1032E000D00111248A2B9B2BE072F0E0F595E79535
:1032F0008E2B9F2B607370E075956795759567951C
:10330000862B972B207630E0F5E035952795FA95BA
:10331000E1F7822B932B982F8827842BDF91CF9175
:103320001F910895FF920F931F93CF93DF938C010A
:1033300060E0EFDEEC0161E0C801EBDEF82E62E058
:10334000C801E7DE00E010E01F2DA80160E070E09A
:103350008E0120E030E0302F222711270027042B98
:10336000152B262B372B492F50E060E070E0CB0166
:10337000BA01602B712B822B932BDF91CF911F9180
:103380000F91FF9008950F931F93CF93DF938C01BC
:1033900060E0BFDEEC0161E0C801BBDEAC01CE0144
:1033A000A0E0B0E0DC019927882760E070E08C01A4
:1033B0009D01042B152B262B372BC901B801DF915A
:1033C000CF911F910F9108951F920F920FB60F92F8
:1033D00011242F933F938F939F93AF93BF9380912B
:1033E000440390914503A0914603B0914703309167
:1033F000430323E0230F2D3720F40196A11DB11DB7
:1034000005C026E8230F0296A11DB11D209343039A
:103410008093440390934503A0934603B0934703DE
:103420008091480390914903A0914A03B0914B03C6
:103430000196A11DB11D8093480390934903A09369
:103440004A03B0934B03BF91AF919F918F913F91EE
:103450002F910F900FBE0F901F901895CF93DF9371
:1034600000D0CDB7DEB7789484B5826084BD84B5D2
:10347000816084BD85B5826085BD85B5816085BD6F
:1034800080916E00816080936E0010928100809127
:1034900081008260809381008091810081608093AF
:1034A0008100809180008160809380008091B100D4
:1034B00084608093B1008091B00081608093B000FF
:1034C0008091910082608093910080919100816051
:1034D0008093910080919000816080939000809112
:1034E000A10082608093A1008091A10081608093FF
:1034F000A1008091A00081608093A00080912101B3
:10350000826080932101809121018160809321015B
:103510008091200181608093200180917A008460F5
:1035200080937A0080917A00826080937A00809103
:103530007A00816080937A0080917A00806880931D
:103540007A001092C100B9DD60E080E090E0E1DD3A
:10355000883024E5920709F4B4C0803264E5960708
:1035600009F4B2C08938994809F4B1C060E087E62F
:1035700090E0CFDD8734974409F4ACC081EA90E055
:1035800002DF613081E6780709F4A7C06F3F7F4F03
:1035900019F486E295E1CFC08FEB90E0C3DE67358A
:1035A00023E8720709F49CC0613884E9780709F4BC
:1035B0009AC0613195E1790709F498C0603225E13C
:1035C000720709F496C0663285E1780711F3613815
:1035D00095E1790709F490C06115744109F48FC031
:1035E00084ED90E0D0DE6031734509F48BC087ED47
:1035F00090E0C9DE6133704809F487C08FEE90E037
:1036000091DE6732734909F483C08EEF90E0BBDE30
:10361000BB27A92F982F872F8335904209F47BC0B1
:1036200084E090E0B0DE9B01811120C0211570E89C
:103630003707E1F48FEF898383E88A8387E58B83FB
:10364000AE014F5F5F4F63E089EB90E00E9422077D
:1036500060E080ED90E05DDD893929F08039A1F4EA
:1036600080E990E968C089E990E065C0263285E18B
:10367000380709F48ECF223595E8390709F44EC092
:1036800021313C4A09F44DC083ED90E07CDECB0152
:103690003DE6370F323008F447C0783909F444C0AA
:1036A000773709F441C0763109F43EC0633D7105B6
:1036B000E9F1833D934DE9F160E080E090E029DDA0
:1036C0003AC088E094E537C080E294E534C089E8E8
:1036D00092E131C087E493E82EC083E699E12BC0E4
:1036E00087E593E828C081E894E925C081E195E168
:1036F00022C080E295E11FC081E895E11CC084E111
:1037000098E619C080E193E516C081E390E813C004
:1037100087E293E910C083E590E20DC089E897E75E
:103720000AC081E19CEA07C0CB0105C083ED90E0AF
:1037300002C083ED93ED90935D0280935C02833D24
:10374000910531F486E894E990935D0280935C02E0
:1037500000915C0210915D02B0DC10921603109291
:10376000150310931A0300931903073583E818070C
:1037700009F49FC108F0E8C0053325E4120709F4F5
:1037800082C108F06CC0003275E1170709F46FC1FF
:1037900008F043C0043591E0190709F45DC1E0F475
:1037A0000939110509F03AC283E194E190931803B5
:1037B0008093170380EE91E09093020380930103BE
:1037C00080E491E0909300038093FF02BDE1EB2E33
:1037D000F12C04E212E028C2053065E1160709F475
:1037E00080C10131154109F019C283E090E0909346
:1037F00018038093170380EE91E090930203809367
:10380000010380E491E0909300038093FF0253E072
:10381000E52EF12C0DEA12E007C2013885E1180708
:1038200009F4A8C180F40632154109F0F7C183E11B
:1038300094E090931803809317033CE0E32EF12C5F
:103840000BE912E0F1C1023066E1160709F47DC10F
:103850000335104209F0E2C187E194E181C10338E8
:1038600087E7180709F41AC108F043C0083024E5B7
:10387000120709F436C1E0F40031134509F0CEC156
:1038800083E19EE0909318038093170380EE91E00C
:10389000909302038093010380E491E090930003EE
:1038A0008093FF0222E0E22EF12C09E912E0BCC174
:1038B000093088E6180709F41FC10431184609F0D9
:1038C000ADC183E094E0909318038093170380EEDA
:1038D00091E0909302038093010380E491E0909340
:1038E00000038093FF0293E0E92EF12C06E912E039
:1038F0009BC1033927E7120709F47EC180F4093818
:10390000174709F08BC183E194E0909318038093EB
:10391000170381E4E82EF12C05E512E085C1063994
:1039200087E7180709F441C10133104809F076C14F
:1039300083E194E1909318038093170302E1E02E52
:10394000F12C03E412E070C1083323E9120709F4F3
:1039500002C170F5073273E9170709F4DEC0B8F445
:10396000023093E9190709F4F3C038F4003910491B
:1039700009F054C183E194E19EC0003273E9170756
:1039800009F4AFC00532134909F4B9C047C109327F
:1039900093E9190709F4E2C008F4B1C0013363E9FF
:1039A000160709F4AFC00533134909F4ABC036C19B
:1039B000093884E91807C8F5073894E9190708F0A9
:1039C000F7C0013824E9120709F4D7C090F4005475
:1039D00013490230110508F021C183E194E090936E
:1039E000180380931703E5E6EE2EF12C0EE911E0A3
:1039F0001BC10638144909F011C183E094E090938B
:103A000018038093170380EE91E090930203809354
:103A1000010380E491E0909300038093FF026BE345
:103A2000E62EF12C0EE111E0FFC0053085EB180702
:103A300009F4D6C038F401311C4A09F0EFC083E123
:103A400094E18EC0093065EB160709F4D5C0053046
:103A5000154C09F4C5C0E2C082E090E190931803D0
:103A6000809317036CE970E080EF96E0C3C083E1B8
:103A700094E0909318038093170346E0E42EF12C12
:103A800007EA12E0D1C080E090E1909318038093A0
:103A900017036CE970E084E596E0ACC082E091E148
:103AA000909318038093170360E970E084EC95E02D
:103AB000A1C083E094E1909318038093170380EEF4
:103AC00091E0909302038093010380E491E090934E
:103AD00000038093FF0212E0E12EF12C01E412E0DA
:103AE000A3C084E090E1909318038093170368EDDE
:103AF00070E08CEE94E07EC082E091E105C080E051
:103B000091E102C080E090E1909318038093170345
:103B10006CEC70E080E294E06DC083E094E0909300
:103B200018038093170380E991E090930203809338
:103B3000010380EF90E0909300038093FF02AEE1D9
:103B4000EA2EF12C06E012E06FC083E195E008C098
:103B500083E094E005C083E194E002C083E096E155
:103B60009093180380931703F3E0EF2EF12C03E0FA
:103B700012E05AC083E194E002C087E094E09093A1
:103B800018038093170380EE91E0909302038093D3
:103B9000010380E491E0909300038093FF0275E4B9
:103BA000E72EF12C09E511E03FC083E094E002C06C
:103BB00083E194E0909318038093170380EE91E0E3
:103BC000909302038093010380E491E090930003BB
:103BD0008093FF025BE2E52EF12C03EF10E024C09E
:103BE00088E090E1909318038093170360EB70E0F6
:103BF00080E793E0BAD816C080E090E19093180374
:103C00008093170360EC70E080EB92E0AED880E91F
:103C100091E0909302038093010304C0109200038B
:103C20001092FF0200E010E020911803822F82958D
:103C30008F7090E08170992790931C0380931B03F1
:103C40000115110569F069E070E08AEE90E0B0D8E6
:103C5000B701C801ADD866E070E084EE90E0A8D866
:103C600060E08BEF92E00E94ED0B60E08BEF92E062
:103C70000E94E5158091190390911A0388389449A0
:103C800009F05BC210925B0220EE3FEF40E050E093
:103C900060E070E08BEF92E00E94B40BE0902503AF
:103CA000F09026038091170380FF03C04EE2E42EBC
:103CB000F12C00E010E020E030E040E050E060E077
:103CC00070E08BEF92E00E946D098091170380FDF8
:103CD00010C060E070E080912103909122030E9467
:103CE0007A0860E070E080912303909124030E94A1
:103CF0007A088B988A9880910201877880930201D4
:103D0000A5988EB1877C8EB9409102018F2D99279D
:103D10009C012370332755E0220F331F5A95E1F79A
:103D2000242B209302014EB19C012C703327220FCB
:103D3000331F220F331F242B2EB944B39C01207153
:103D40003327220F331F242B24BB4EB19C0120723A
:103D500033273595279535952795242B2EB94091F6
:103D600002019C01207C3327F3E035952795FA95D5
:103D7000E1F7242B209302018998899A809102010E
:103D8000877880930201A5988EB1877C8EB92091A7
:103D90000201C70183709927A5E0880F991FAA9592
:103DA000E1F7822B809302012EB1C7018C70992715
:103DB000880F991F880F991F822B8EB924B3C701D2
:103DC00080719927880F991F822B84BB2EB1C70160
:103DD000807299279595879595958795822B8EB9B1
:103DE00020910201C701807C992733E09595879542
:103DF0003A95E1F7822B809302018998899A8A9AF1
:103E0000809101018778809301019D988DB1877C15
:103E10008DB9409117035091180380911903909127
:103E20001A0346FD1EC0889A889888988898209121
:103E300000012CB122B32CB120910001889A40FDE1
:103E400010C0893862E1960761F0889A889888984E
:103E50008898209100012CB122B32CB1209100014F
:103E6000889A8131954161F4889A889888988898D1
:103E7000809100018CB182B38CB180910001889A4D
:103E8000FA01E470FF2744FF90C0889A88988898C8
:103E90008898809100016CB192B37CB1309100019F
:103EA0006073262F26952695807682958695877055
:103EB000682F622B9072892F90E095958795862BBD
:103EC000672F6870660F660F862B632F687198E006
:103ED000699FB0011124682B889A889A88988898DD
:103EE0008898209100018CB192B37CB1A09100011F
:103EF0008073382F36953695207622952695277033
:103F0000822F832B9072292F30E035952795282B0F
:103F1000872F8870880F880F282B8A2F887178E068
:103F2000879F70011124822F8E29889A889A8898F9
:103F300088988898A09100017CB132B32CB19091FF
:103F400000017073B72FB695B695A076A295A69589
:103F5000A7707A2F7B2B3072A32FB0E0B595A79571
:103F6000A72B2870220F220FA22B987178E0979F21
:103F7000900111242A2B889A8C7FEF2B59F0287FEF
:103F800098E0899F70011124F22A669566956695DE
:103F9000E62A80C0687F78E0879F70011124F62AA6
:103FA000269526952695E22A75C0889A889888983D
:103FB000889880910001DCB092B3BCB1A09100015F
:103FC000889A889A889888988898209100013CB1AE
:103FD00002B36CB1C09000013073E32EF12CF59464
:103FE000E794F594E794207630E055E035952795F1
:103FF0005A95E1F7E22AF32A007210E01595079529
:10400000E02AF12A687070E0660F771F660F771F4D
:104010009701262B372B6C2D687178E0679F700114
:104020001124E22AF32A889A2D2D2073322F3695F7
:1040300036958076829586958770282F232B9072EF
:10404000892F90E095958795822BB870BB0FBB0F99
:104050008B2B2A2F287198E0299F90011124822B05
:10406000F82A43FF03C0FE24EF24FE24EF2B91F037
:104070009701232F3327269526952695C701807E05
:104080009770822B932BFE2CEE24FF0CFF0CFF0C61
:10409000E82AF92A80915B02882399F09701207C15
:1040A000C7018827947055E0969587955A95E1F752
:1040B0006FE3E622FF24F694E794E82AF92AE22A3D
:1040C000F32A889A8B9A8091010188678093010175
:1040D0009D9A8DB188638DB940FD14C00091050390
:1040E000109106030150110920910303309104033C
:1040F0002150310940E050E060E070E08BEF92E049
:104100000E946D097FE1E7167FEFF706B1F486E0C4
:104110008983AE014F5F5F4F61E08AE390E00E94C8
:10412000220780911703909118038F7E90931803B4
:104130008093170381E080935B026FEF8BEF92E037
:104140000E94ED0B60E070E08BEF92E00E940407AC
:1041500060E08BEF92E00E94E51530EEE32E37E051
:10416000F32E0DE210E02EE130E044E150E064E196
:1041700070E08BEF92E00E94310AE0916E02F091C4
:104180006F0282E08083E0916A02F0916B021082FC
:10419000E0916C02F0916D028FEC808310927602B8
:1041A000E0917202F091730286E08083E0917002E8
:1041B000F0917102808180618083E0917002F091C2
:1041C0007102808188608083E0917002F0917102B9
:1041D000808180688083E0917002F091710280811B
:1041E0008F7D8083CC24CA9443E0D42E60E08091FC
:1041F00031030E94CA1760E0809132030E94CA17FF
:1042000061E0809134030E94CA1761E0809133031A
:104210000E94CA1780913F03E0913703F091380361
:104220009081892B808390914003E0913B03F09132
:104230003C038081282F30E0892F90E08095909575
:10424000822393238083809131030E9406188C017E
:10425000809131030E940618A801481B590B4C5F3E
:104260005F4F4930510548F49801280F391FC901A3
:1042700095958795BB24B39401C0B12C8601081B8A
:10428000190B60E0809134030E94CA1760E08091AE
:1042900033030E94CA1761E0809131030E94CA175C
:1042A00061E0809132030E94CA1790914203E0912D
:1042B0003D03F0913E038081282F30E0892F90E06C
:1042C0008095909582239323808380914103E09190
:1042D0003903F0913A039081892B808380913303D5
:1042E0000E9406184C01809133030E9406187C013D
:1042F000C4018E199F090496099728F4E80CF91C4B
:10430000F594E79401C0B12C61E0809134030E94E0
:10431000CA1760E0809131030E94CA1780913F0361
:10432000E0913703F09138032081422F50E0282F8D
:1043300030E020953095242335232083809142035B
:10434000E0913D03F0913E039081892B8083809121
:1043500033030E9406184C01809131030E94061815
:1043600060903503709036036114710409F436C00F
:10437000BC01990F880B990B33D21B012C01B4019E
:10438000990C880B990B2CD29B01AC01C201B10195
:104390008CD120E030E040E85FE322D11B012C010A
:1043A000B801012E000C880B990B1AD29B01AC01AD
:1043B000C201B101A1D21B012C01B30180E090E048
:1043C0000DD29B01AC01C201B10196D220E030E0D8
:1043D00040E85AE391D2D1D14B0106C0881A990A1C
:1043E00081E0881A8CEF980AB11002C0812C912CC0
:1043F000C4010B978D3D934090F58EE392E00E94AF
:104400005217B801110F880B990B97FF03C00E9438
:10441000A41703C04AE00E94641786010E191F0901
:1044200083E492E00E945217B801110F880B990B98
:1044300097FF03C00E94A41703C04AE00E946417BC
:1044400089E492E00E945217B401990C880B990BF1
:104450004AE00E94641786E592E00E9452170E948B
:104460000410C4CEEEE5F2E01382128288EE93E0EF
:10447000A0E0B0E084839583A683B78384E092E0D4
:104480009183808385EC90E09587848784EC90E02D
:104490009787868780EC90E0918B808B81EC90E011
:1044A000938B828B82EC90E0958B848B86EC90E0F2
:1044B000978B868B118E128E138E148EAFE2B3E023
:1044C00087E312968C93129788E314968C93149733
:1044D00087E013968C93139786E015968C93159727
:1044E0008CE291E017969C938E931697ECE0FDE09A
:1044F000E491F0E0EE0FFF1FE451F34F85919491AA
:1045000019969C938E931897EDE3FDE0E491F0E00B
:10451000EE0FFF1FE451F34F859194911B969C93EE
:104520008E931A97EEE3FDE0E491F0E0EE0FFF1FAB
:10453000E451F34F859194911D969C938E931C9713
:10454000EDE0FDE0E491F0E0EE0FFF1FE451F34FEA
:10455000859194911F969C938E931E97ECEAFCE0B4
:10456000E4915096EC935097EDEDFCE0E491529677
:10457000EC935297EEEDFCE0E4915196EC93519759
:10458000EDEAFCE0E4915396EC9353978AE090E0D7
:104590008D939C93EBEFF2E01382128220EF30E0D8
:1045A0003583248380E491E0978386833187208755
:1045B00093878287158A158614861786168681E06A
:1045C000848B2FEF3FEF338B228B318B208B868BAD
:1045D000178A118E108E86E192E091838083089570
:1045E0005058BB27AA270ED04DC13ED130F043D141
:1045F00020F031F49F3F11F41EF433C10EF4E09526
:10460000E7FB29C1E92F4FD180F3BA17620773077F
:104610008407950718F071F49EF567C10EF4E095D4
:104620000B2EBA2FA02D0B01B90190010C01CA016C
:10463000A0011124FF27591B99F0593F50F4503E17
:1046400068F11A16F040A22F232F342F4427585F09
:10465000F3CF469537952795A795F0405395C9F721
:104660007EF41F16BA0B620B730B840BBAF09150D9
:10467000A1F0FF0FBB1F661F771F881FC2F70EC078
:10468000BA0F621F731F841F48F48795779567954B
:10469000B795F7959E3F08F0B3CF9395880F08F034
:1046A0009927EE0F9795879508950CD0EBC0E3D02E
:1046B00040F0DAD030F021F45F3F19F0CCC0511156
:1046C00015C1CFC0F0D098F39923C9F35523B1F3A6
:1046D000951B550BBB27AA2762177307840738F071
:1046E0009F5F5F4F220F331F441FAA1FA9F333D0D0
:1046F0000E2E3AF0E0E830D091505040E695001C84
:10470000CAF729D0FE2F27D0660F771F881FBB1F3F
:10471000261737074807AB07B0E809F0BB0B802D19
:10472000BF01FF2793585F4F2AF09E3F510568F065
:1047300092C0DCC05F3FECF3983EDCF38695779542
:104740006795B795F7959F5FC9F7880F911D969567
:10475000879597F90895E1E0660F771F881FBB1FC3
:10476000621773078407BA0720F0621B730B840B70
:10477000BA0BEE1F88F7E095089504D06894B11144
:10478000B5C0089598D088F09F5790F0B92F992719
:10479000B751A0F0D1F0660F771F881F991F1AF04C
:1047A000BA95C9F712C0B13081F09FD0B1E0089539
:1047B0009CC0672F782F8827B85F39F0B93FCCF3BA
:1047C000869577956795B395D9F73EF49095809542
:1047D000709561957F4F8F4F9F4F0895E89409C062
:1047E00097FB3EF490958095709561957F4F8F4F24
:1047F0009F4F9923A9F0F92F96E9BB279395F6953A
:10480000879577956795B795F111F8CFFAF4BB0FB7
:1048100011F460FF1BC06F5F7F4F8F4F9F4F16C01B
:10482000882311F096E911C0772321F09EE8872FA5
:10483000762F05C0662371F096E8862F70E060E061
:104840002AF09A95660F771F881FDAF7880F9695DA
:10485000879597F9089597F99F6780E870E060E081
:1048600008959FEF80EC089500240A941616170609
:1048700018060906089500240A9412161306140651
:1048800005060895092E0394000C11F4882352F0B4
:10489000BB0F40F4BF2B11F460FF04C06F5F7F4F6C
:1048A0008F4F9F4F089557FD9058440F551F59F053
:1048B0005F3F71F04795880F97FB991F61F09F3F0D
:1048C00079F087950895121613061406551FF2CF36
:1048D0004695F1DF08C0161617061806991FF1CF86
:1048E00086957105610508940895E894BB276627AD
:1048F0007727CB0197F908950BD0C4CFB5DF28F007
:10490000BADF18F0952309F0A6CFABCF1124EECF74
:10491000CADFA0F3959FD1F3950F50E0551F629F1A
:10492000F001729FBB27F00DB11D639FAA27F00D08
:10493000B11DAA1F649F6627B00DA11D661F829F2F
:104940002227B00DA11D621F739FB00DA11D621F14
:10495000839FA00D611D221F749F3327A00D611D31
:10496000231F849F600D211D822F762F6A2F112413
:104970009F5750408AF0E1F088234AF0EE0FFF1F66
:10498000BB1F661F771F881F91505040A9F79E3F9D
:10499000510570F060CFAACF5F3FECF3983EDCF397
:1049A000869577956795B795F795E7959F5FC1F7DA
:1049B000FE2B880F911D9695879597F90895A1E292
:1049C0001A2EAA1BBB1BFD010DC0AA1FBB1FEE1F89
:1049D000FF1FA217B307E407F50720F0A21BB30BD4
:1049E000E40BF50B661F771F881F991F1A9469F750
:1049F00060957095809590959B01AC01BD01CF01AC
:104A00000895EE0FFF1F881F8BBF0790F691E02DD2
:0E4A1000199481E090E0F89400C0F894FFCF74
:104A1E00000000009D0F0B0F360FE30F670F450FC1
:104A2E00590F0000000068120B0F01070007B40BAE
:104A3E00391532150A1526151A153A150915ED0BE5
:104A4E00E515EC06D906310A04079B133C135820D2
:104A5E003D20000959203D20000950726573737581
:0A4A6E007265203D20000D0A0000D3
:00000001FF
